{
  "contractName": "MatatabiToken",
  "abi": [
    {
      "constant": true,
      "inputs": [],
      "name": "name",
      "outputs": [
        {
          "name": "",
          "type": "string"
        }
      ],
      "payable": false,
      "stateMutability": "view",
      "type": "function"
    },
    {
      "constant": true,
      "inputs": [],
      "name": "totalSupply",
      "outputs": [
        {
          "name": "",
          "type": "uint256"
        }
      ],
      "payable": false,
      "stateMutability": "view",
      "type": "function"
    },
    {
      "constant": true,
      "inputs": [],
      "name": "decimals",
      "outputs": [
        {
          "name": "",
          "type": "uint8"
        }
      ],
      "payable": false,
      "stateMutability": "view",
      "type": "function"
    },
    {
      "constant": true,
      "inputs": [],
      "name": "suppliedAmount",
      "outputs": [
        {
          "name": "",
          "type": "uint256"
        }
      ],
      "payable": false,
      "stateMutability": "view",
      "type": "function"
    },
    {
      "constant": true,
      "inputs": [
        {
          "name": "",
          "type": "address"
        }
      ],
      "name": "balanceOf",
      "outputs": [
        {
          "name": "",
          "type": "uint256"
        }
      ],
      "payable": false,
      "stateMutability": "view",
      "type": "function"
    },
    {
      "constant": true,
      "inputs": [],
      "name": "owner",
      "outputs": [
        {
          "name": "",
          "type": "address"
        }
      ],
      "payable": false,
      "stateMutability": "view",
      "type": "function"
    },
    {
      "constant": true,
      "inputs": [],
      "name": "symbol",
      "outputs": [
        {
          "name": "",
          "type": "string"
        }
      ],
      "payable": false,
      "stateMutability": "view",
      "type": "function"
    },
    {
      "constant": true,
      "inputs": [
        {
          "name": "",
          "type": "address"
        },
        {
          "name": "",
          "type": "address"
        }
      ],
      "name": "allowance",
      "outputs": [
        {
          "name": "",
          "type": "uint256"
        }
      ],
      "payable": false,
      "stateMutability": "view",
      "type": "function"
    },
    {
      "constant": true,
      "inputs": [],
      "name": "configUpdatedBlock",
      "outputs": [
        {
          "name": "",
          "type": "uint256"
        }
      ],
      "payable": false,
      "stateMutability": "view",
      "type": "function"
    },
    {
      "constant": false,
      "inputs": [
        {
          "name": "newOwner",
          "type": "address"
        }
      ],
      "name": "transferOwnership",
      "outputs": [],
      "payable": false,
      "stateMutability": "nonpayable",
      "type": "function"
    },
    {
      "inputs": [
        {
          "name": "_initialTotalSupply",
          "type": "uint256"
        },
        {
          "name": "_tokenName",
          "type": "string"
        },
        {
          "name": "_tokenSymbol",
          "type": "string"
        },
        {
          "name": "_transferEnable",
          "type": "bool"
        },
        {
          "name": "_rate",
          "type": "uint16"
        },
        {
          "name": "_maxTokenPerAccount",
          "type": "uint64"
        },
        {
          "name": "_lockup_update",
          "type": "uint8"
        },
        {
          "name": "_lockup_cancel",
          "type": "uint16"
        }
      ],
      "payable": false,
      "stateMutability": "nonpayable",
      "type": "constructor"
    },
    {
      "payable": true,
      "stateMutability": "payable",
      "type": "fallback"
    },
    {
      "anonymous": false,
      "inputs": [
        {
          "indexed": true,
          "name": "from",
          "type": "address"
        },
        {
          "indexed": true,
          "name": "to",
          "type": "address"
        },
        {
          "indexed": false,
          "name": "value",
          "type": "uint256"
        }
      ],
      "name": "Transfer",
      "type": "event"
    },
    {
      "anonymous": false,
      "inputs": [
        {
          "indexed": true,
          "name": "from",
          "type": "address"
        },
        {
          "indexed": false,
          "name": "value",
          "type": "uint256"
        }
      ],
      "name": "Burn",
      "type": "event"
    },
    {
      "constant": false,
      "inputs": [
        {
          "name": "_to",
          "type": "address"
        },
        {
          "name": "_value",
          "type": "uint256"
        }
      ],
      "name": "transfer",
      "outputs": [],
      "payable": false,
      "stateMutability": "nonpayable",
      "type": "function"
    },
    {
      "constant": false,
      "inputs": [
        {
          "name": "_from",
          "type": "address"
        },
        {
          "name": "_to",
          "type": "address"
        },
        {
          "name": "_value",
          "type": "uint256"
        }
      ],
      "name": "transferFrom",
      "outputs": [
        {
          "name": "success",
          "type": "bool"
        }
      ],
      "payable": false,
      "stateMutability": "nonpayable",
      "type": "function"
    },
    {
      "constant": false,
      "inputs": [
        {
          "name": "_spender",
          "type": "address"
        },
        {
          "name": "_value",
          "type": "uint256"
        }
      ],
      "name": "approve",
      "outputs": [
        {
          "name": "success",
          "type": "bool"
        }
      ],
      "payable": false,
      "stateMutability": "nonpayable",
      "type": "function"
    },
    {
      "constant": false,
      "inputs": [
        {
          "name": "_spender",
          "type": "address"
        },
        {
          "name": "_value",
          "type": "uint256"
        },
        {
          "name": "_extraData",
          "type": "bytes"
        }
      ],
      "name": "approveAndCall",
      "outputs": [
        {
          "name": "success",
          "type": "bool"
        }
      ],
      "payable": false,
      "stateMutability": "nonpayable",
      "type": "function"
    },
    {
      "constant": false,
      "inputs": [
        {
          "name": "_newRate",
          "type": "uint16"
        }
      ],
      "name": "setRate",
      "outputs": [
        {
          "name": "",
          "type": "bool"
        }
      ],
      "payable": false,
      "stateMutability": "nonpayable",
      "type": "function"
    },
    {
      "constant": false,
      "inputs": [
        {
          "name": "_additional",
          "type": "uint32"
        }
      ],
      "name": "addTotalSupply",
      "outputs": [
        {
          "name": "",
          "type": "bool"
        }
      ],
      "payable": false,
      "stateMutability": "nonpayable",
      "type": "function"
    },
    {
      "constant": false,
      "inputs": [
        {
          "name": "_TransferEnable",
          "type": "bool"
        }
      ],
      "name": "setTransferEnable",
      "outputs": [
        {
          "name": "",
          "type": "bool"
        }
      ],
      "payable": false,
      "stateMutability": "nonpayable",
      "type": "function"
    },
    {
      "constant": false,
      "inputs": [
        {
          "name": "_additional",
          "type": "uint32"
        }
      ],
      "name": "addMaxTokenPerAccount",
      "outputs": [
        {
          "name": "",
          "type": "bool"
        }
      ],
      "payable": false,
      "stateMutability": "nonpayable",
      "type": "function"
    },
    {
      "constant": true,
      "inputs": [],
      "name": "canExchange",
      "outputs": [
        {
          "name": "",
          "type": "bool"
        }
      ],
      "payable": false,
      "stateMutability": "view",
      "type": "function"
    },
    {
      "constant": false,
      "inputs": [],
      "name": "cancel",
      "outputs": [
        {
          "name": "",
          "type": "uint256"
        }
      ],
      "payable": true,
      "stateMutability": "payable",
      "type": "function"
    },
    {
      "constant": false,
      "inputs": [
        {
          "name": "_amount",
          "type": "uint256"
        }
      ],
      "name": "burn",
      "outputs": [
        {
          "name": "",
          "type": "bool"
        }
      ],
      "payable": false,
      "stateMutability": "nonpayable",
      "type": "function"
    },
    {
      "constant": false,
      "inputs": [],
      "name": "payout",
      "outputs": [
        {
          "name": "",
          "type": "bool"
        }
      ],
      "payable": false,
      "stateMutability": "nonpayable",
      "type": "function"
    },
    {
      "constant": true,
      "inputs": [],
      "name": "payableAmount",
      "outputs": [
        {
          "name": "",
          "type": "uint256"
        }
      ],
      "payable": false,
      "stateMutability": "view",
      "type": "function"
    },
    {
      "constant": true,
      "inputs": [],
      "name": "getConfig",
      "outputs": [
        {
          "name": "",
          "type": "bool"
        },
        {
          "name": "",
          "type": "uint16"
        },
        {
          "name": "",
          "type": "uint64"
        }
      ],
      "payable": false,
      "stateMutability": "view",
      "type": "function"
    },
    {
      "constant": true,
      "inputs": [],
      "name": "getLockup",
      "outputs": [
        {
          "name": "",
          "type": "uint8"
        },
        {
          "name": "",
          "type": "uint16"
        }
      ],
      "payable": false,
      "stateMutability": "view",
      "type": "function"
    },
    {
      "constant": true,
      "inputs": [
        {
          "name": "idx",
          "type": "uint256"
        }
      ],
      "name": "getExchangeLog",
      "outputs": [
        {
          "name": "",
          "type": "address"
        },
        {
          "name": "",
          "type": "uint64"
        },
        {
          "name": "",
          "type": "uint128"
        },
        {
          "name": "",
          "type": "uint32"
        }
      ],
      "payable": false,
      "stateMutability": "view",
      "type": "function"
    },
    {
      "constant": true,
      "inputs": [],
      "name": "sizeOfExchangeLog",
      "outputs": [
        {
          "name": "",
          "type": "uint256"
        }
      ],
      "payable": false,
      "stateMutability": "view",
      "type": "function"
    }
  ],
  "bytecode": "0x60806040523480156200001157600080fd5b50604051620025be380380620025be8339810180604052810190808051906020019092919080518201929190602001805182019291906020018051906020019092919080519060200190929190805190602001909291908051906020019092919080519060200190929190505050336000806101000a81548173ffffffffffffffffffffffffffffffffffffffff021916908373ffffffffffffffffffffffffffffffffffffffff1602179055508660019080519060200190620000d79291906200023a565b508560029080519060200190620000f09291906200023a565b506000600360006101000a81548160ff021916908360ff16021790555087600481905550600060078190555060408051908101604052808360ff1681526020018261ffff16815250600960008201518160000160006101000a81548160ff021916908360ff16021790555060208201518160000160016101000a81548161ffff021916908361ffff16021790555090505060606040519081016040528086151581526020018561ffff1681526020018467ffffffffffffffff16815250600a60008201518160000160006101000a81548160ff02191690831515021790555060208201518160000160016101000a81548161ffff021916908361ffff16021790555060408201518160000160036101000a81548167ffffffffffffffff021916908367ffffffffffffffff1602179055509050506000600b819055505050505050505050620002e9565b828054600181600116156101000203166002900490600052602060002090601f016020900481019282601f106200027d57805160ff1916838001178555620002ae565b82800160010185558215620002ae579182015b82811115620002ad57825182559160200191906001019062000290565b5b509050620002bd9190620002c1565b5090565b620002e691905b80821115620002e2576000816000905550600101620002c8565b5090565b90565b6122c580620002f96000396000f30060806040526004361061015f576000357c0100000000000000000000000000000000000000000000000000000000900463ffffffff16806306fdde031461048b578063070f52f41461051b578063095ea7b31461054a57806318160ddd146105af57806323b872dd146105da5780632b2ed43e1461065f578063313ce567146106aa57806342966c68146106db5780634c766f851461072057806363bd1d4a1461076b5780636c806d611461079a57806370a08231146107c557806370acba491461081c5780637c1bd307146108475780638da5cb5b1461090d57806395d89b4114610964578063a9059cbb146109f4578063bed315f814610a41578063c3f909d414610a8a578063cae9ca5114610ae3578063ce1ffcd914610b8e578063dd62ed3e14610bd5578063dff9f41914610c4c578063e476f63014610c77578063e622109114610cb7578063ea8a1af014610ce2578063f2fde38b14610d00575b6000670de0b6b3a764000061018b34600a60000160019054906101000a900461ffff1661ffff16610d43565b81151561019457fe5b04905061019f610d7b565b15156101aa57600080fd5b70010000000000000000000000000000000034111515156101ca57600080fd5b64010000000081111515156101de57600080fd5b6007546004540381111515156101f357600080fd5b60008111151561020257600080fd5b600a60000160039054906101000a900467ffffffffffffffff1667ffffffffffffffff1681600560003373ffffffffffffffffffffffffffffffffffffffff1673ffffffffffffffffffffffffffffffffffffffff16815260200190815260200160002054011115151561027557600080fd5b80600560003373ffffffffffffffffffffffffffffffffffffffff1673ffffffffffffffffffffffffffffffffffffffff168152602001908152602001600020600082825401925050819055508060076000828254019250508190555060086080604051908101604052803373ffffffffffffffffffffffffffffffffffffffff1681526020014367ffffffffffffffff168152602001346fffffffffffffffffffffffffffffffff1681526020018363ffffffff168152509080600181540180825580915050906001820390600052602060002090600202016000909192909190915060008201518160000160006101000a81548173ffffffffffffffffffffffffffffffffffffffff021916908373ffffffffffffffffffffffffffffffffffffffff16021790555060208201518160000160146101000a81548167ffffffffffffffff021916908367ffffffffffffffff16021790555060408201518160010160006101000a8154816fffffffffffffffffffffffffffffffff02191690836fffffffffffffffffffffffffffffffff16021790555060608201518160010160106101000a81548163ffffffff021916908363ffffffff1602179055505050503373ffffffffffffffffffffffffffffffffffffffff1660007fddf252ad1be2c89b69c2b068fc378daa952ba7f163c4a11628f55a4df523b3ef836040518082815260200191505060405180910390a350005b34801561049757600080fd5b506104a0610d9f565b6040518080602001828103825283818151815260200191508051906020019080838360005b838110156104e05780820151818401526020810190506104c5565b50505050905090810190601f16801561050d5780820380516001836020036101000a031916815260200191505b509250505060405180910390f35b34801561052757600080fd5b50610530610d7b565b604051808215151515815260200191505060405180910390f35b34801561055657600080fd5b50610595600480360381019080803573ffffffffffffffffffffffffffffffffffffffff16906020019092919080359060200190929190505050610e3d565b604051808215151515815260200191505060405180910390f35b3480156105bb57600080fd5b506105c4610eef565b6040518082815260200191505060405180910390f35b3480156105e657600080fd5b50610645600480360381019080803573ffffffffffffffffffffffffffffffffffffffff169060200190929190803573ffffffffffffffffffffffffffffffffffffffff16906020019092919080359060200190929190505050610ef5565b604051808215151515815260200191505060405180910390f35b34801561066b57600080fd5b50610690600480360381019080803563ffffffff169060200190929190505050611047565b604051808215151515815260200191505060405180910390f35b3480156106b657600080fd5b506106bf611134565b604051808260ff1660ff16815260200191505060405180910390f35b3480156106e757600080fd5b5061070660048036038101908080359060200190929190505050611147565b604051808215151515815260200191505060405180910390f35b34801561072c57600080fd5b50610751600480360381019080803563ffffffff1690602001909291905050506111fd565b604051808215151515815260200191505060405180910390f35b34801561077757600080fd5b506107806112ae565b604051808215151515815260200191505060405180910390f35b3480156107a657600080fd5b506107af611360565b6040518082815260200191505060405180910390f35b3480156107d157600080fd5b50610806600480360381019080803573ffffffffffffffffffffffffffffffffffffffff169060200190929190505050611366565b6040518082815260200191505060405180910390f35b34801561082857600080fd5b5061083161137e565b6040518082815260200191505060405180910390f35b34801561085357600080fd5b506108726004803603810190808035906020019092919050505061138b565b604051808573ffffffffffffffffffffffffffffffffffffffff1673ffffffffffffffffffffffffffffffffffffffff1681526020018467ffffffffffffffff1667ffffffffffffffff168152602001836fffffffffffffffffffffffffffffffff166fffffffffffffffffffffffffffffffff1681526020018263ffffffff1663ffffffff16815260200194505050505060405180910390f35b34801561091957600080fd5b50610922611484565b604051808273ffffffffffffffffffffffffffffffffffffffff1673ffffffffffffffffffffffffffffffffffffffff16815260200191505060405180910390f35b34801561097057600080fd5b506109796114a9565b6040518080602001828103825283818151815260200191508051906020019080838360005b838110156109b957808201518184015260208101905061099e565b50505050905090810190601f1680156109e65780820380516001836020036101000a031916815260200191505b509250505060405180910390f35b348015610a0057600080fd5b50610a3f600480360381019080803573ffffffffffffffffffffffffffffffffffffffff16906020019092919080359060200190929190505050611547565b005b348015610a4d57600080fd5b50610a70600480360381019080803561ffff16906020019092919050505061157b565b604051808215151515815260200191505060405180910390f35b348015610a9657600080fd5b50610a9f611643565b60405180841515151581526020018361ffff1661ffff1681526020018267ffffffffffffffff1667ffffffffffffffff168152602001935050505060405180910390f35b348015610aef57600080fd5b50610b74600480360381019080803573ffffffffffffffffffffffffffffffffffffffff16906020019092919080359060200190929190803590602001908201803590602001908080601f0160208091040260200160405190810160405280939291908181526020018383808284378201915050505050509192919290505050611694565b604051808215151515815260200191505060405180910390f35b348015610b9a57600080fd5b50610bbb60048036038101908080351515906020019092919050505061183c565b604051808215151515815260200191505060405180910390f35b348015610be157600080fd5b50610c36600480360381019080803573ffffffffffffffffffffffffffffffffffffffff169060200190929190803573ffffffffffffffffffffffffffffffffffffffff1690602001909291905050506118dd565b6040518082815260200191505060405180910390f35b348015610c5857600080fd5b50610c61611902565b6040518082815260200191505060405180910390f35b348015610c8357600080fd5b50610c8c611908565b604051808360ff1660ff1681526020018261ffff1661ffff1681526020019250505060405180910390f35b348015610cc357600080fd5b50610ccc61193a565b6040518082815260200191505060405180910390f35b610cea611aa6565b6040518082815260200191505060405180910390f35b348015610d0c57600080fd5b50610d41600480360381019080803573ffffffffffffffffffffffffffffffffffffffff169060200190929190505050611e7f565b005b600080831415610d565760009050610d75565b8183029050818382811515610d6757fe5b04141515610d7157fe5b8090505b92915050565b6000600960000160009054906101000a900460ff1660ff16600b5443031015905090565b60018054600181600116156101000203166002900480601f016020809104026020016040519081016040528092919081815260200182805460018160011615610100020316600290048015610e355780601f10610e0a57610100808354040283529160200191610e35565b820191906000526020600020905b815481529060010190602001808311610e1857829003601f168201915b505050505081565b600060011515600a60000160009054906101000a900460ff161515141515610e6457600080fd5b81600660003373ffffffffffffffffffffffffffffffffffffffff1673ffffffffffffffffffffffffffffffffffffffff16815260200190815260200160002060008573ffffffffffffffffffffffffffffffffffffffff1673ffffffffffffffffffffffffffffffffffffffff168152602001908152602001600020819055506001905092915050565b60045481565b600060011515600a60000160009054906101000a900460ff161515141515610f1c57600080fd5b600660008573ffffffffffffffffffffffffffffffffffffffff1673ffffffffffffffffffffffffffffffffffffffff16815260200190815260200160002060003373ffffffffffffffffffffffffffffffffffffffff1673ffffffffffffffffffffffffffffffffffffffff168152602001908152602001600020548211151515610fa757600080fd5b81600660008673ffffffffffffffffffffffffffffffffffffffff1673ffffffffffffffffffffffffffffffffffffffff16815260200190815260200160002060003373ffffffffffffffffffffffffffffffffffffffff1673ffffffffffffffffffffffffffffffffffffffff1681526020019081526020016000206000828254039250508190555061103c848484611f1d565b600190509392505050565b60008060009054906101000a900473ffffffffffffffffffffffffffffffffffffffff1673ffffffffffffffffffffffffffffffffffffffff163373ffffffffffffffffffffffffffffffffffffffff161415156110a457600080fd5b60008263ffffffff161115156110b957600080fd5b6110e2600a60000160039054906101000a900467ffffffffffffffff168363ffffffff16612234565b600a60000160036101000a81548167ffffffffffffffff021916908367ffffffffffffffff160217905550600960000160009054906101000a900460ff1660ff164301600b8190555060019050919050565b600360009054906101000a900460ff1681565b600081600560003373ffffffffffffffffffffffffffffffffffffffff1673ffffffffffffffffffffffffffffffffffffffff168152602001908152602001600020541015151561119757600080fd5b81600560003373ffffffffffffffffffffffffffffffffffffffff1673ffffffffffffffffffffffffffffffffffffffff168152602001908152602001600020600082825403925050819055508160076000828254039250508190555060019050919050565b60008060009054906101000a900473ffffffffffffffffffffffffffffffffffffffff1673ffffffffffffffffffffffffffffffffffffffff163373ffffffffffffffffffffffffffffffffffffffff1614151561125a57600080fd5b60008263ffffffff1611151561126f57600080fd5b6112816004548363ffffffff16612264565b600481905550600960000160009054906101000a900460ff1660ff164301600b8190555060019050919050565b60008060009054906101000a900473ffffffffffffffffffffffffffffffffffffffff1673ffffffffffffffffffffffffffffffffffffffff163373ffffffffffffffffffffffffffffffffffffffff1614151561130b57600080fd5b3373ffffffffffffffffffffffffffffffffffffffff166108fc61132d61193a565b9081150290604051600060405180830381858888f19350505050158015611358573d6000803e3d6000fd5b506001905090565b60075481565b60056020528060005260406000206000915090505481565b6000600880549050905090565b6000806000806008858154811015156113a057fe5b906000526020600020906002020160000160009054906101000a900473ffffffffffffffffffffffffffffffffffffffff166008868154811015156113e157fe5b906000526020600020906002020160000160149054906101000a900467ffffffffffffffff1660088781548110151561141657fe5b906000526020600020906002020160010160009054906101000a90046fffffffffffffffffffffffffffffffff1660088881548110151561145357fe5b906000526020600020906002020160010160109054906101000a900463ffffffff1693509350935093509193509193565b6000809054906101000a900473ffffffffffffffffffffffffffffffffffffffff1681565b60028054600181600116156101000203166002900480601f01602080910402602001604051908101604052809291908181526020018280546001816001161561010002031660029004801561153f5780601f106115145761010080835404028352916020019161153f565b820191906000526020600020905b81548152906001019060200180831161152257829003601f168201915b505050505081565b60011515600a60000160009054906101000a900460ff16151514151561156c57600080fd5b611577338383611f1d565b5050565b60008060009054906101000a900473ffffffffffffffffffffffffffffffffffffffff1673ffffffffffffffffffffffffffffffffffffffff163373ffffffffffffffffffffffffffffffffffffffff161415156115d857600080fd5b8161ffff1660001080156115f157506127118261ffff16105b15156115fc57600080fd5b81600a60000160016101000a81548161ffff021916908361ffff160217905550600960000160009054906101000a900460ff1660ff164301600b8190555060019050919050565b6000806000600a60000160009054906101000a900460ff16600a60000160019054906101000a900461ffff16600a60000160039054906101000a900467ffffffffffffffff16925092509250909192565b60008060011515600a60000160009054906101000a900460ff1615151415156116bc57600080fd5b8490506116c98585610e3d565b15611833578073ffffffffffffffffffffffffffffffffffffffff16638f4ffcb1338630876040518563ffffffff167c0100000000000000000000000000000000000000000000000000000000028152600401808573ffffffffffffffffffffffffffffffffffffffff1673ffffffffffffffffffffffffffffffffffffffff1681526020018481526020018373ffffffffffffffffffffffffffffffffffffffff1673ffffffffffffffffffffffffffffffffffffffff16815260200180602001828103825283818151815260200191508051906020019080838360005b838110156117c35780820151818401526020810190506117a8565b50505050905090810190601f1680156117f05780820380516001836020036101000a031916815260200191505b5095505050505050600060405180830381600087803b15801561181257600080fd5b505af1158015611826573d6000803e3d6000fd5b5050505060019150611834565b5b509392505050565b60008060009054906101000a900473ffffffffffffffffffffffffffffffffffffffff1673ffffffffffffffffffffffffffffffffffffffff163373ffffffffffffffffffffffffffffffffffffffff1614151561189957600080fd5b81600a60000160006101000a81548160ff021916908315150217905550600960000160009054906101000a900460ff1660ff164301600b8190555060019050919050565b6006602052816000526040600020602052806000526040600020600091509150505481565b600b5481565b600080600960000160009054906101000a900460ff16600960000160019054906101000a900461ffff16915091509091565b6000806000806000809054906101000a900473ffffffffffffffffffffffffffffffffffffffff1673ffffffffffffffffffffffffffffffffffffffff163373ffffffffffffffffffffffffffffffffffffffff1614151561199b57600080fd5b6119bc43600960000160019054906101000a900461ffff1661ffff16612280565b92506000915060016008805490500390505b600081101515611a8457826008828154811015156119e857fe5b906000526020600020906002020160000160149054906101000a900467ffffffffffffffff1667ffffffffffffffff161015611a2357611a84565b600881815481101515611a3257fe5b906000526020600020906002020160010160009054906101000a90046fffffffffffffffffffffffffffffffff166fffffffffffffffffffffffffffffffff16820191508080600190039150506119ce565b813073ffffffffffffffffffffffffffffffffffffffff163103935050505090565b6000806000806000611acf43600960000160019054906101000a900461ffff1661ffff16612280565b935060016008805490500392505b600083101515611e735783600884815481101515611af757fe5b906000526020600020906002020160000160149054906101000a900467ffffffffffffffff1667ffffffffffffffff161015611b3257611e73565b3373ffffffffffffffffffffffffffffffffffffffff16600884815481101515611b5857fe5b906000526020600020906002020160000160009054906101000a900473ffffffffffffffffffffffffffffffffffffffff1673ffffffffffffffffffffffffffffffffffffffff16141515611bac57611e65565b6000600884815481101515611bbd57fe5b906000526020600020906002020160010160009054906101000a90046fffffffffffffffffffffffffffffffff166fffffffffffffffffffffffffffffffff161415611c0857611e65565b600883815481101515611c1757fe5b906000526020600020906002020160010160009054906101000a90046fffffffffffffffffffffffffffffffff166fffffffffffffffffffffffffffffffff169150600883815481101515611c6857fe5b906000526020600020906002020160010160109054906101000a900463ffffffff169050600082111515611c9b57600080fd5b813073ffffffffffffffffffffffffffffffffffffffff163110151515611cc157600080fd5b8063ffffffff16600560003373ffffffffffffffffffffffffffffffffffffffff1673ffffffffffffffffffffffffffffffffffffffff1681526020019081526020016000205410151515611d1557600080fd5b8063ffffffff16600560003373ffffffffffffffffffffffffffffffffffffffff1673ffffffffffffffffffffffffffffffffffffffff168152602001908152602001600020600082825403925050819055508063ffffffff166007600082825403925050819055506000600884815481101515611d8f57fe5b906000526020600020906002020160010160006101000a8154816fffffffffffffffffffffffffffffffff02191690836fffffffffffffffffffffffffffffffff1602179055506000600884815481101515611de757fe5b906000526020600020906002020160010160106101000a81548163ffffffff021916908363ffffffff1602179055503373ffffffffffffffffffffffffffffffffffffffff166108fc839081150290604051600060405180830381858888f19350505050158015611e5c573d6000803e3d6000fd5b50819450611e78565b828060019003935050611add565b600094505b5050505090565b6000809054906101000a900473ffffffffffffffffffffffffffffffffffffffff1673ffffffffffffffffffffffffffffffffffffffff163373ffffffffffffffffffffffffffffffffffffffff16141515611eda57600080fd5b806000806101000a81548173ffffffffffffffffffffffffffffffffffffffff021916908373ffffffffffffffffffffffffffffffffffffffff16021790555050565b6000808373ffffffffffffffffffffffffffffffffffffffff1614151515611f4457600080fd5b81600560008673ffffffffffffffffffffffffffffffffffffffff1673ffffffffffffffffffffffffffffffffffffffff1681526020019081526020016000205410151515611f9257600080fd5b600560008473ffffffffffffffffffffffffffffffffffffffff1673ffffffffffffffffffffffffffffffffffffffff1681526020019081526020016000205482600560008673ffffffffffffffffffffffffffffffffffffffff1673ffffffffffffffffffffffffffffffffffffffff16815260200190815260200160002054011015151561202157600080fd5b600560008473ffffffffffffffffffffffffffffffffffffffff1673ffffffffffffffffffffffffffffffffffffffff16815260200190815260200160002054600560008673ffffffffffffffffffffffffffffffffffffffff1673ffffffffffffffffffffffffffffffffffffffff1681526020019081526020016000205401905081600560008673ffffffffffffffffffffffffffffffffffffffff1673ffffffffffffffffffffffffffffffffffffffff1681526020019081526020016000206000828254039250508190555081600560008573ffffffffffffffffffffffffffffffffffffffff1673ffffffffffffffffffffffffffffffffffffffff168152602001908152602001600020600082825401925050819055508273ffffffffffffffffffffffffffffffffffffffff168473ffffffffffffffffffffffffffffffffffffffff167fddf252ad1be2c89b69c2b068fc378daa952ba7f163c4a11628f55a4df523b3ef846040518082815260200191505060405180910390a380600560008573ffffffffffffffffffffffffffffffffffffffff1673ffffffffffffffffffffffffffffffffffffffff16815260200190815260200160002054600560008773ffffffffffffffffffffffffffffffffffffffff1673ffffffffffffffffffffffffffffffffffffffff168152602001908152602001600020540114151561222e57fe5b50505050565b600081830190508267ffffffffffffffff168167ffffffffffffffff161015151561225b57fe5b80905092915050565b6000818301905082811015151561227757fe5b80905092915050565b600082821115151561228e57fe5b8183039050929150505600a165627a7a723058203eeb1941b9ef2c290e2c525765afbc39f4615d451c36daafe324fcf18445a7ad0029",
  "source": "pragma solidity ^0.4.16;\r\n\r\ninterface tokenRecipient { function receiveApproval(address _from, uint256 _value, address _token, bytes _extraData) external; }\r\n\r\n\r\n/**\r\n * @title SafeMath\r\n * @dev Math operations with safety checks that throw on error\r\n */\r\nlibrary SafeMath {\r\n    /**\r\n    * @dev Multiplies two numbers, throws on overflow.\r\n    */\r\n    function mul(uint256 a, uint256 b) internal pure returns (uint256 c) {\r\n        if (a == 0) {\r\n            return 0;\r\n        }\r\n        c = a * b;\r\n        assert(c / a == b);\r\n        return c;\r\n    }\r\n    /**\r\n    * @dev Subtracts two numbers, throws on overflow (i.e. if subtrahend is greater than minuend).\r\n    */\r\n    function sub(uint256 a, uint256 b) internal pure returns (uint256) {\r\n        assert(b <= a);\r\n        return a - b;\r\n    }\r\n    /**\r\n    * @dev Adds two numbers, throws on overflow.\r\n    */\r\n    function add(uint256 a, uint256 b) internal pure returns (uint256 c) {\r\n        c = a + b;\r\n        assert(c >= a);\r\n        return c;\r\n    }\r\n    function add64(uint64 a, uint64 b) internal pure returns (uint64 c) {\r\n        c = a + b;\r\n        assert(c >= a);\r\n        return c;\r\n    }    \r\n}\r\n/**\r\n * Rules to verify ownership\r\n */\r\ncontract Owned {\r\n    address public owner;\r\n    constructor() public{\r\n        owner = msg.sender;\r\n    }\r\n    modifier onlyOwner {\r\n        require(msg.sender == owner);\r\n        _;\r\n    }\r\n    function transferOwnership(address newOwner) public onlyOwner {\r\n        owner = newOwner;\r\n    }\r\n}\r\n\r\n\r\ncontract MatatabiToken is Owned{\r\n    // Public variables of the ERC20 token\r\n    string public name;\r\n    string public symbol;\r\n    uint8 public decimals;\r\n    uint256 public totalSupply;\r\n    // This creates an array with all balances\r\n    mapping (address => uint256) public balanceOf;\r\n    mapping (address => mapping (address => uint256)) public allowance;\r\n\r\n    // Extend  by contruct\r\n    uint256 public suppliedAmount;\r\n    ExchangeLog[] internal exchangeLog;\r\n    Lockup internal lockup;\r\n    Config internal config;\r\n    uint256 public configUpdatedBlock;\r\n\r\n    struct ExchangeLog{\r\n        address sender;\r\n        uint64 brockNumber;\r\n        uint128 inputCurrency;\r\n        uint32  outputToken;\r\n    }\r\n    struct Lockup{\r\n        uint8 update;\r\n        uint16 cancel;\r\n    }\r\n    struct Config{\r\n        bool transferEnable;\r\n        uint16 rate;\r\n        uint64 maxTokenPerAccount;\r\n    }\r\n\r\n\r\n    // This generates a public event on the blockchain that will notify clients\r\n    event Transfer(address indexed from, address indexed to, uint256 value);\r\n\r\n    // This notifies clients about the amount burnt\r\n    event Burn(address indexed from, uint256 value);\r\n\r\n    /**\r\n     * Constructor function\r\n     */\r\n    constructor(\r\n        uint256 _initialTotalSupply,\r\n        string  _tokenName,\r\n        string  _tokenSymbol,\r\n        bool    _transferEnable,\r\n        uint16  _rate,\r\n        uint64  _maxTokenPerAccount,\r\n        uint8   _lockup_update,\r\n        uint16  _lockup_cancel\r\n    ) public {\r\n        //ERC20 parameter\r\n        name = _tokenName;\r\n        symbol = _tokenSymbol;\r\n        decimals = 0;\r\n        totalSupply = _initialTotalSupply;\r\n        //Extends parameter\r\n        suppliedAmount = 0;\r\n        lockup = Lockup(_lockup_update,_lockup_cancel);\r\n        config = Config(_transferEnable,_rate,_maxTokenPerAccount);\r\n        configUpdatedBlock = 0;\r\n    }\r\n\r\n    /**\r\n     * Internal transfer, only can be called by this contract\r\n     */\r\n    function _transfer(address _from, address _to, uint _value) internal {\r\n        // Prevent transfer to 0x0 address. Use burn() instead\r\n        require(_to != 0x0);\r\n        // Check if the sender has enough\r\n        require(balanceOf[_from] >= _value);\r\n        // Check for overflows\r\n        require(balanceOf[_to] + _value >= balanceOf[_to]);\r\n        // Save this for an assertion in the future\r\n        uint previousBalances = balanceOf[_from] + balanceOf[_to];\r\n        // Subtract from the sender\r\n        balanceOf[_from] -= _value;\r\n        // Add the same to the recipient\r\n        balanceOf[_to] += _value;\r\n        emit Transfer(_from, _to, _value);\r\n        // Asserts are used to use static analysis to find bugs in your code. They should never fail\r\n        assert(balanceOf[_from] + balanceOf[_to] == previousBalances);\r\n    }\r\n\r\n    /**\r\n     * Transfer tokens\r\n     *\r\n     * Send `_value` tokens to `_to` from your account\r\n     *\r\n     * @param _to The address of the recipient\r\n     * @param _value the amount to send\r\n     */\r\n    function transfer(address _to, uint256 _value) public {\r\n        //\r\n        require(config.transferEnable == true);\r\n        _transfer(msg.sender, _to, _value);\r\n    }\r\n\r\n    /**\r\n     * Transfer tokens from other address\r\n     *\r\n     * Send `_value` tokens to `_to` on behalf of `_from`\r\n     *\r\n     * @param _from The address of the sender\r\n     * @param _to The address of the recipient\r\n     * @param _value the amount to send\r\n     */\r\n    function transferFrom(address _from, address _to, uint256 _value) public returns (bool success) {\r\n        //\r\n        require(config.transferEnable == true);\r\n        require(_value <= allowance[_from][msg.sender]);     // Check allowance\r\n        allowance[_from][msg.sender] -= _value;\r\n        _transfer(_from, _to, _value);\r\n        return true;\r\n    }\r\n\r\n    /**\r\n     * Set allowance for other address\r\n     *\r\n     * Allows `_spender` to spend no more than `_value` tokens on your behalf\r\n     *\r\n     * @param _spender The address authorized to spend\r\n     * @param _value the max amount they can spend\r\n     */\r\n    function approve(address _spender, uint256 _value) public returns (bool success) {\r\n        //\r\n        require(config.transferEnable == true);\r\n        allowance[msg.sender][_spender] = _value;\r\n        return true;\r\n    }\r\n\r\n    /**\r\n     * Set allowance for other address and notify\r\n     *\r\n     * Allows `_spender` to spend no more than `_value` tokens on your behalf, and then ping the contract about it\r\n     *\r\n     * @param _spender The address authorized to spend\r\n     * @param _value the max amount they can spend\r\n     * @param _extraData some extra information to send to the approved contract\r\n     */\r\n    function approveAndCall(address _spender, uint256 _value, bytes _extraData) public returns (bool success) {\r\n        //\r\n        require(config.transferEnable == true);\r\n        tokenRecipient spender = tokenRecipient(_spender);\r\n        if (approve(_spender, _value)) {\r\n            spender.receiveApproval(msg.sender, _value, this, _extraData);\r\n            return true;\r\n        }\r\n    }\r\n\r\n\r\n    function setRate(uint16 _newRate) public onlyOwner returns (bool)\r\n    {\r\n        require(0<_newRate && _newRate<10001);\r\n        config.rate = _newRate;\r\n        configUpdatedBlock = block.number + lockup.update;\r\n        return true;\r\n    }\r\n\r\n    function addTotalSupply(uint32 _additional) public onlyOwner returns (bool){\r\n        require(_additional>0);\r\n        totalSupply = SafeMath.add(totalSupply,_additional);\r\n        configUpdatedBlock = block.number+lockup.update;\r\n        return true;\r\n    }\r\n\r\n    function setTransferEnable(bool _TransferEnable) public onlyOwner returns (bool){\r\n        config.transferEnable = _TransferEnable;\r\n        configUpdatedBlock = block.number+lockup.update;\r\n        return true;\r\n    }\r\n\r\n    function addMaxTokenPerAccount(uint32 _additional) public onlyOwner returns (bool){\r\n        require(_additional>0);\r\n        config.maxTokenPerAccount = SafeMath.add64(config.maxTokenPerAccount,_additional);\r\n        configUpdatedBlock = block.number+lockup.update;\r\n        return true;        \r\n    }\r\n\r\n    function canExchange() public view returns (bool){\r\n        return block.number-configUpdatedBlock>=lockup.update;\r\n    }\r\n\r\n\r\n\r\n    function () public payable{\r\n        uint256 token_amount = SafeMath.mul(msg.value,config.rate) / 1000000000000000000;\r\n        require(canExchange());\r\n        require(msg.value<=2**128);\r\n        require(token_amount<=2**32);\r\n        require(token_amount<=totalSupply-suppliedAmount);\r\n        require(token_amount>0);\r\n        require(balanceOf[msg.sender]+token_amount<=config.maxTokenPerAccount);\r\n\r\n        //update balanceOf\r\n        balanceOf[msg.sender] += token_amount;\r\n        suppliedAmount += token_amount;\r\n        \r\n        //update last trade\r\n        exchangeLog.push(ExchangeLog(msg.sender,uint64(block.number),uint128(msg.value),uint32(token_amount)));\r\n\r\n        //event\r\n        emit Transfer(0, msg.sender,token_amount);\r\n    }\r\n\r\n    function cancel() public payable returns (uint){\r\n        uint th_block = SafeMath.sub(block.number,lockup.cancel);\r\n\r\n        for(uint i = exchangeLog.length-1;i >= 0;i--){\r\n            //\r\n            if(exchangeLog[i].brockNumber<th_block){\r\n                break;\r\n            }\r\n            //\r\n            if(exchangeLog[i].sender!=msg.sender){\r\n                continue;\r\n            }\r\n            //0\r\n            if(exchangeLog[i].inputCurrency==0){\r\n                continue;\r\n            }\r\n            //\r\n            uint256 revers_balance = exchangeLog[i].inputCurrency;\r\n            uint32 reverse_token = exchangeLog[i].outputToken;\r\n\r\n            require(revers_balance>0);\r\n            require(address(this).balance >= revers_balance);\r\n            require(balanceOf[msg.sender] >= reverse_token);\r\n\r\n            balanceOf[msg.sender] -= reverse_token;\r\n            suppliedAmount -= reverse_token;\r\n            exchangeLog[i].inputCurrency = 0;\r\n            exchangeLog[i].outputToken = 0;\r\n            msg.sender.transfer(revers_balance);\r\n            return revers_balance;            \r\n        }\r\n        return 0;\r\n    }\r\n    function burn(uint _amount) public returns (bool){\r\n        require(balanceOf[msg.sender]>=_amount);\r\n        balanceOf[msg.sender] -= _amount;\r\n        suppliedAmount -= _amount;\r\n        return true;\r\n        \r\n    }\r\n\r\n    function payout() public onlyOwner returns (bool){\r\n        msg.sender.transfer(payableAmount());\r\n        return true;\r\n    }\r\n\r\n    function payableAmount() public view onlyOwner returns(uint){\r\n        uint th_block = SafeMath.sub(block.number,lockup.cancel);\r\n        uint temp_amount = 0;\r\n        for(uint i = exchangeLog.length-1;i >= 0;i--){\r\n            //\r\n            if(exchangeLog[i].brockNumber<th_block){\r\n                break;\r\n            }\r\n            temp_amount += exchangeLog[i].inputCurrency;\r\n        }\r\n        return address(this).balance-temp_amount;\r\n    }\r\n    function getConfig() public view returns(bool,uint16,uint64){\r\n        return (config.transferEnable,config.rate,config.maxTokenPerAccount);\r\n    }\r\n    function getLockup() public view returns(uint8,uint16){\r\n        return (lockup.update,lockup.cancel);\r\n    }\r\n    function getExchangeLog(uint idx) public view returns(address,uint64,uint128,uint32){\r\n        return (exchangeLog[idx].sender,exchangeLog[idx].brockNumber,exchangeLog[idx].inputCurrency,exchangeLog[idx].outputToken);\r\n    }\r\n    function sizeOfExchangeLog() public view returns(uint){\r\n        return exchangeLog.length;\r\n    }\r\n\r\n\r\n\r\n\r\n}\r\n",
  "sourcePath": "/mnt/d/project.github/nekonium project/matatabi_contract/truffle/contracts/MatatabiToken.sol",
  "compiler": {
    "name": "solc",
    "version": "0.4.23+commit.124ca40d.Emscripten.clang"
  },
  "schemaVersion": "2.0.0",
  "updatedAt": "2018-05-08T08:05:59.180Z"
}